{
  "_format": "hh-sol-artifact-1",
  "contractName": "MyEpicNFT",
  "sourceName": "contracts/MyEpicNFT.sol",
  "abi": [
    {
      "inputs": [],
      "stateMutability": "nonpayable",
      "type": "constructor"
    },
    {
      "anonymous": false,
      "inputs": [
        {
          "indexed": true,
          "internalType": "address",
          "name": "owner",
          "type": "address"
        },
        {
          "indexed": true,
          "internalType": "address",
          "name": "approved",
          "type": "address"
        },
        {
          "indexed": true,
          "internalType": "uint256",
          "name": "tokenId",
          "type": "uint256"
        }
      ],
      "name": "Approval",
      "type": "event"
    },
    {
      "anonymous": false,
      "inputs": [
        {
          "indexed": true,
          "internalType": "address",
          "name": "owner",
          "type": "address"
        },
        {
          "indexed": true,
          "internalType": "address",
          "name": "operator",
          "type": "address"
        },
        {
          "indexed": false,
          "internalType": "bool",
          "name": "approved",
          "type": "bool"
        }
      ],
      "name": "ApprovalForAll",
      "type": "event"
    },
    {
      "anonymous": false,
      "inputs": [
        {
          "indexed": false,
          "internalType": "address",
          "name": "sender",
          "type": "address"
        },
        {
          "indexed": false,
          "internalType": "uint256",
          "name": "tokenId",
          "type": "uint256"
        }
      ],
      "name": "NewEpicNFTMinted",
      "type": "event"
    },
    {
      "anonymous": false,
      "inputs": [
        {
          "indexed": true,
          "internalType": "address",
          "name": "from",
          "type": "address"
        },
        {
          "indexed": true,
          "internalType": "address",
          "name": "to",
          "type": "address"
        },
        {
          "indexed": true,
          "internalType": "uint256",
          "name": "tokenId",
          "type": "uint256"
        }
      ],
      "name": "Transfer",
      "type": "event"
    },
    {
      "inputs": [
        {
          "internalType": "address",
          "name": "to",
          "type": "address"
        },
        {
          "internalType": "uint256",
          "name": "tokenId",
          "type": "uint256"
        }
      ],
      "name": "approve",
      "outputs": [],
      "stateMutability": "nonpayable",
      "type": "function"
    },
    {
      "inputs": [
        {
          "internalType": "address",
          "name": "owner",
          "type": "address"
        }
      ],
      "name": "balanceOf",
      "outputs": [
        {
          "internalType": "uint256",
          "name": "",
          "type": "uint256"
        }
      ],
      "stateMutability": "view",
      "type": "function"
    },
    {
      "inputs": [
        {
          "internalType": "uint256",
          "name": "tokenId",
          "type": "uint256"
        }
      ],
      "name": "getApproved",
      "outputs": [
        {
          "internalType": "address",
          "name": "",
          "type": "address"
        }
      ],
      "stateMutability": "view",
      "type": "function"
    },
    {
      "inputs": [],
      "name": "getTotalMinted",
      "outputs": [
        {
          "internalType": "uint256",
          "name": "",
          "type": "uint256"
        }
      ],
      "stateMutability": "view",
      "type": "function"
    },
    {
      "inputs": [
        {
          "internalType": "address",
          "name": "owner",
          "type": "address"
        },
        {
          "internalType": "address",
          "name": "operator",
          "type": "address"
        }
      ],
      "name": "isApprovedForAll",
      "outputs": [
        {
          "internalType": "bool",
          "name": "",
          "type": "bool"
        }
      ],
      "stateMutability": "view",
      "type": "function"
    },
    {
      "inputs": [],
      "name": "makeAnEpicNFT",
      "outputs": [],
      "stateMutability": "nonpayable",
      "type": "function"
    },
    {
      "inputs": [],
      "name": "name",
      "outputs": [
        {
          "internalType": "string",
          "name": "",
          "type": "string"
        }
      ],
      "stateMutability": "view",
      "type": "function"
    },
    {
      "inputs": [
        {
          "internalType": "uint256",
          "name": "tokenId",
          "type": "uint256"
        }
      ],
      "name": "ownerOf",
      "outputs": [
        {
          "internalType": "address",
          "name": "",
          "type": "address"
        }
      ],
      "stateMutability": "view",
      "type": "function"
    },
    {
      "inputs": [
        {
          "internalType": "uint256",
          "name": "tokenId",
          "type": "uint256"
        }
      ],
      "name": "pickRandomFirstWord",
      "outputs": [
        {
          "internalType": "string",
          "name": "",
          "type": "string"
        }
      ],
      "stateMutability": "view",
      "type": "function"
    },
    {
      "inputs": [
        {
          "internalType": "uint256",
          "name": "tokenId",
          "type": "uint256"
        }
      ],
      "name": "pickRandomSecondWord",
      "outputs": [
        {
          "internalType": "string",
          "name": "",
          "type": "string"
        }
      ],
      "stateMutability": "view",
      "type": "function"
    },
    {
      "inputs": [
        {
          "internalType": "uint256",
          "name": "tokenId",
          "type": "uint256"
        }
      ],
      "name": "pickRandomThirdWord",
      "outputs": [
        {
          "internalType": "string",
          "name": "",
          "type": "string"
        }
      ],
      "stateMutability": "view",
      "type": "function"
    },
    {
      "inputs": [
        {
          "internalType": "address",
          "name": "from",
          "type": "address"
        },
        {
          "internalType": "address",
          "name": "to",
          "type": "address"
        },
        {
          "internalType": "uint256",
          "name": "tokenId",
          "type": "uint256"
        }
      ],
      "name": "safeTransferFrom",
      "outputs": [],
      "stateMutability": "nonpayable",
      "type": "function"
    },
    {
      "inputs": [
        {
          "internalType": "address",
          "name": "from",
          "type": "address"
        },
        {
          "internalType": "address",
          "name": "to",
          "type": "address"
        },
        {
          "internalType": "uint256",
          "name": "tokenId",
          "type": "uint256"
        },
        {
          "internalType": "bytes",
          "name": "_data",
          "type": "bytes"
        }
      ],
      "name": "safeTransferFrom",
      "outputs": [],
      "stateMutability": "nonpayable",
      "type": "function"
    },
    {
      "inputs": [
        {
          "internalType": "address",
          "name": "operator",
          "type": "address"
        },
        {
          "internalType": "bool",
          "name": "approved",
          "type": "bool"
        }
      ],
      "name": "setApprovalForAll",
      "outputs": [],
      "stateMutability": "nonpayable",
      "type": "function"
    },
    {
      "inputs": [
        {
          "internalType": "bytes4",
          "name": "interfaceId",
          "type": "bytes4"
        }
      ],
      "name": "supportsInterface",
      "outputs": [
        {
          "internalType": "bool",
          "name": "",
          "type": "bool"
        }
      ],
      "stateMutability": "view",
      "type": "function"
    },
    {
      "inputs": [],
      "name": "symbol",
      "outputs": [
        {
          "internalType": "string",
          "name": "",
          "type": "string"
        }
      ],
      "stateMutability": "view",
      "type": "function"
    },
    {
      "inputs": [
        {
          "internalType": "uint256",
          "name": "tokenId",
          "type": "uint256"
        }
      ],
      "name": "tokenURI",
      "outputs": [
        {
          "internalType": "string",
          "name": "",
          "type": "string"
        }
      ],
      "stateMutability": "view",
      "type": "function"
    },
    {
      "inputs": [
        {
          "internalType": "address",
          "name": "from",
          "type": "address"
        },
        {
          "internalType": "address",
          "name": "to",
          "type": "address"
        },
        {
          "internalType": "uint256",
          "name": "tokenId",
          "type": "uint256"
        }
      ],
      "name": "transferFrom",
      "outputs": [],
      "stateMutability": "nonpayable",
      "type": "function"
    }
  ],
  "bytecode": "0x60806040526040518061014001604052806101098152602001620066cf6101099139600890805190602001906200003892919062000c9e565b50604051806101e001604052806040518060400160405280600681526020017f437265657079000000000000000000000000000000000000000000000000000081525081526020016040518060400160405280600681526020017f437261776c79000000000000000000000000000000000000000000000000000081525081526020016040518060400160405280600681526020017f53706f6f6b79000000000000000000000000000000000000000000000000000081525081526020016040518060400160405280600581526020017f536361727900000000000000000000000000000000000000000000000000000081525081526020016040518060400160405280600681526020017f426c6f6f6479000000000000000000000000000000000000000000000000000081525081526020016040518060400160405280600481526020017f446561640000000000000000000000000000000000000000000000000000000081525081526020016040518060400160405280600681526020017f556e64656164000000000000000000000000000000000000000000000000000081525081526020016040518060400160405280600681526020017f576974636879000000000000000000000000000000000000000000000000000081525081526020016040518060400160405280600981526020017f4d75726465726f7573000000000000000000000000000000000000000000000081525081526020016040518060400160405280600781526020017f4861756e7465640000000000000000000000000000000000000000000000000081525081526020016040518060400160405280600a81526020017f4d7973746572696f75730000000000000000000000000000000000000000000081525081526020016040518060400160405280600681526020017f48756e677279000000000000000000000000000000000000000000000000000081525081526020016040518060400160405280600681526020017f526f7474656e000000000000000000000000000000000000000000000000000081525081526020016040518060400160405280600781526020017f446563617965640000000000000000000000000000000000000000000000000081525081526020016040518060400160405280600881526020017f47686f756c697368000000000000000000000000000000000000000000000000815250815250600990600f620003ca92919062000d2f565b50604051806101e001604052806040518060400160405280600681526020017f2047686f7374000000000000000000000000000000000000000000000000000081525081526020016040518060400160405280600f81526020017f204a61636b2d4f2d4c616e7465726e000000000000000000000000000000000081525081526020016040518060400160405280600681526020017f205769746368000000000000000000000000000000000000000000000000000081525081526020016040518060400160405280600781526020017f205a6f6d6269650000000000000000000000000000000000000000000000000081525081526020016040518060400160405280600881526020017f204d6f6e7374657200000000000000000000000000000000000000000000000081525081526020016040518060400160405280600881526020017f2044726163756c6100000000000000000000000000000000000000000000000081525081526020016040518060400160405280600d81526020017f204672616e6b656e737465696e0000000000000000000000000000000000000081525081526020016040518060400160405280600981526020017f20536b656c65746f6e000000000000000000000000000000000000000000000081525081526020016040518060400160405280600881526020017f2050756d706b696e00000000000000000000000000000000000000000000000081525081526020016040518060400160405280600681526020017f20436c6f776e000000000000000000000000000000000000000000000000000081525081526020016040518060400160405280600e81526020017f204d61642d536369656e7469737400000000000000000000000000000000000081525081526020016040518060400160405280600881526020017f2056616d7069726500000000000000000000000000000000000000000000000081525081526020016040518060400160405280600f81526020017f2056616d706972652d536c61796572000000000000000000000000000000000081525081526020016040518060400160405280600681526020017f2047686f756c000000000000000000000000000000000000000000000000000081525081526020016040518060400160405280600a81526020017f204368616e676c696e6700000000000000000000000000000000000000000000815250815250600a90600f6200075c92919062000d2f565b50604051806101e001604052806040518060400160405280600581526020017f205761727400000000000000000000000000000000000000000000000000000081525081526020016040518060400160405280600581526020017f20546f6d6200000000000000000000000000000000000000000000000000000081525081526020016040518060400160405280600581526020017f205374657700000000000000000000000000000000000000000000000000000081525081526020016040518060400160405280600481526020017f204361740000000000000000000000000000000000000000000000000000000081525081526020016040518060400160405280600681526020017f20426f6e6573000000000000000000000000000000000000000000000000000081525081526020016040518060400160405280600781526020017f20506f69736f6e0000000000000000000000000000000000000000000000000081525081526020016040518060400160405280600481526020017f204361740000000000000000000000000000000000000000000000000000000081525081526020016040518060400160405280600681526020017f20426f6e6573000000000000000000000000000000000000000000000000000081525081526020016040518060400160405280600481526020017f205261740000000000000000000000000000000000000000000000000000000081525081526020016040518060400160405280600c81526020017f20566f6f646f6f2d646f6c6c000000000000000000000000000000000000000081525081526020016040518060400160405280600b81526020017f20477261766573746f6e6500000000000000000000000000000000000000000081525081526020016040518060400160405280600981526020017f204361756c64726f6e000000000000000000000000000000000000000000000081525081526020016040518060400160405280600681526020017f2043616e6479000000000000000000000000000000000000000000000000000081525081526020016040518060400160405280600781526020017f20547269636b730000000000000000000000000000000000000000000000000081525081526020016040518060400160405280600681526020017f2054726561740000000000000000000000000000000000000000000000000000815250815250600b90600f62000aee92919062000d2f565b5034801562000afc57600080fd5b506040518060400160405280600c81526020017f48616c6c6f7765656e4e465400000000000000000000000000000000000000008152506040518060400160405280600481526020017f484c574e00000000000000000000000000000000000000000000000000000000815250816000908051906020019062000b8192919062000c9e565b50806001908051906020019062000b9a92919062000c9e565b50505062000bcc604051806060016040528060298152602001620067d86029913962000bd260201b620012ac1760201c565b62000f50565b62000c728160405160240162000be9919062000e64565b6040516020818303038152906040527f41304fac000000000000000000000000000000000000000000000000000000007bffffffffffffffffffffffffffffffffffffffffffffffffffffffff19166020820180517bffffffffffffffffffffffffffffffffffffffffffffffffffffffff838183161783525050505062000c7560201b60201c565b50565b60008151905060006a636f6e736f6c652e6c6f679050602083016000808483855afa5050505050565b82805462000cac9062000eda565b90600052602060002090601f01602090048101928262000cd0576000855562000d1c565b82601f1062000ceb57805160ff191683800117855562000d1c565b8280016001018555821562000d1c579182015b8281111562000d1b57825182559160200191906001019062000cfe565b5b50905062000d2b919062000d96565b5090565b82805482825590600052602060002090810192821562000d83579160200282015b8281111562000d8257825182908051906020019062000d7192919062000c9e565b509160200191906001019062000d50565b5b50905062000d92919062000db5565b5090565b5b8082111562000db157600081600090555060010162000d97565b5090565b5b8082111562000dd9576000818162000dcf919062000ddd565b5060010162000db6565b5090565b50805462000deb9062000eda565b6000825580601f1062000dff575062000e20565b601f01602090049060005260206000209081019062000e1f919062000d96565b5b50565b600062000e308262000e88565b62000e3c818562000e93565b935062000e4e81856020860162000ea4565b62000e598162000f3f565b840191505092915050565b6000602082019050818103600083015262000e80818462000e23565b905092915050565b600081519050919050565b600082825260208201905092915050565b60005b8381101562000ec457808201518184015260208101905062000ea7565b8381111562000ed4576000848401525b50505050565b6000600282049050600182168062000ef357607f821691505b6020821081141562000f0a5762000f0962000f10565b5b50919050565b7f4e487b7100000000000000000000000000000000000000000000000000000000600052602260045260246000fd5b6000601f19601f8301169050919050565b61576f8062000f606000396000f3fe608060405234801561001057600080fd5b50600436106101165760003560e01c806370a08231116100a2578063b88d4fde11610071578063b88d4fde14610305578063c575757a14610321578063c87b56dd14610351578063de9d132f14610381578063e985e9c51461038b57610116565b806370a082311461026b57806395d89b411461029b578063a22cb465146102b9578063b187301f146102d557610116565b80630ca1c5c9116100e95780630ca1c5c9146101b557806323b872dd146101d35780632de38d68146101ef57806342842e0e1461021f5780636352211e1461023b57610116565b806301ffc9a71461011b57806306fdde031461014b578063081812fc14610169578063095ea7b314610199575b600080fd5b6101356004803603810190610130919061253f565b6103bb565b6040516101429190614fc5565b60405180910390f35b61015361049d565b6040516101609190614fe0565b60405180910390f35b610183600480360381019061017e9190612591565b61052f565b6040516101909190614f35565b60405180910390f35b6101b360048036038101906101ae9190612503565b6105b4565b005b6101bd6106cc565b6040516101ca9190615260565b60405180910390f35b6101ed60048036038101906101e891906123fd565b6106e2565b005b61020960048036038101906102049190612591565b610742565b6040516102169190614fe0565b60405180910390f35b610239600480360381019061023491906123fd565b610860565b005b61025560048036038101906102509190612591565b610880565b6040516102629190614f35565b60405180910390f35b61028560048036038101906102809190612398565b610932565b6040516102929190615260565b60405180910390f35b6102a36109ea565b6040516102b09190614fe0565b60405180910390f35b6102d360048036038101906102ce91906124c7565b610a7c565b005b6102ef60048036038101906102ea9190612591565b610bfd565b6040516102fc9190614fe0565b60405180910390f35b61031f600480360381019061031a919061244c565b610d1b565b005b61033b60048036038101906103369190612591565b610d7d565b6040516103489190614fe0565b60405180910390f35b61036b60048036038101906103669190612591565b610e9b565b6040516103789190614fe0565b60405180910390f35b610389610fed565b005b6103a560048036038101906103a091906123c1565b611218565b6040516103b29190614fc5565b60405180910390f35b60007f80ac58cd000000000000000000000000000000000000000000000000000000007bffffffffffffffffffffffffffffffffffffffffffffffffffffffff1916827bffffffffffffffffffffffffffffffffffffffffffffffffffffffff1916148061048657507f5b5e139f000000000000000000000000000000000000000000000000000000007bffffffffffffffffffffffffffffffffffffffffffffffffffffffff1916827bffffffffffffffffffffffffffffffffffffffffffffffffffffffff1916145b80610496575061049582611345565b5b9050919050565b6060600080546104ac906154ff565b80601f01602080910402602001604051908101604052809291908181526020018280546104d8906154ff565b80156105255780601f106104fa57610100808354040283529160200191610525565b820191906000526020600020905b81548152906001019060200180831161050857829003601f168201915b5050505050905090565b600061053a826113af565b610579576040517f08c379a0000000000000000000000000000000000000000000000000000000008152600401610570906151c0565b60405180910390fd5b6004600083815260200190815260200160002060009054906101000a900473ffffffffffffffffffffffffffffffffffffffff169050919050565b60006105bf82610880565b90508073ffffffffffffffffffffffffffffffffffffffff168373ffffffffffffffffffffffffffffffffffffffff161415610630576040517f08c379a000000000000000000000000000000000000000000000000000000000815260040161062790615220565b60405180910390fd5b8073ffffffffffffffffffffffffffffffffffffffff1661064f61141b565b73ffffffffffffffffffffffffffffffffffffffff16148061067e575061067d8161067861141b565b611218565b5b6106bd576040517f08c379a00000000000000000000000000000000000000000000000000000000081526004016106b490615100565b60405180910390fd5b6106c78383611423565b505050565b6000806106d960076114dc565b90508091505090565b6106f36106ed61141b565b826114ea565b610732576040517f08c379a000000000000000000000000000000000000000000000000000000000815260040161072990615240565b60405180910390fd5b61073d8383836115c8565b505050565b6060600061077661075284611824565b6040516020016107629190614ef1565b6040516020818303038152906040526119d1565b905060098054905081610789919061557a565b9050600981815481106107c5577f4e487b7100000000000000000000000000000000000000000000000000000000600052603260045260246000fd5b9060005260206000200180546107da906154ff565b80601f0160208091040260200160405190810160405280929190818152602001828054610806906154ff565b80156108535780601f1061082857610100808354040283529160200191610853565b820191906000526020600020905b81548152906001019060200180831161083657829003601f168201915b5050505050915050919050565b61087b83838360405180602001604052806000815250610d1b565b505050565b6000806002600084815260200190815260200160002060009054906101000a900473ffffffffffffffffffffffffffffffffffffffff169050600073ffffffffffffffffffffffffffffffffffffffff168173ffffffffffffffffffffffffffffffffffffffff161415610929576040517f08c379a000000000000000000000000000000000000000000000000000000000815260040161092090615140565b60405180910390fd5b80915050919050565b60008073ffffffffffffffffffffffffffffffffffffffff168273ffffffffffffffffffffffffffffffffffffffff1614156109a3576040517f08c379a000000000000000000000000000000000000000000000000000000000815260040161099a90615120565b60405180910390fd5b600360008373ffffffffffffffffffffffffffffffffffffffff1673ffffffffffffffffffffffffffffffffffffffff168152602001908152602001600020549050919050565b6060600180546109f9906154ff565b80601f0160208091040260200160405190810160405280929190818152602001828054610a25906154ff565b8015610a725780601f10610a4757610100808354040283529160200191610a72565b820191906000526020600020905b815481529060010190602001808311610a5557829003601f168201915b5050505050905090565b610a8461141b565b73ffffffffffffffffffffffffffffffffffffffff168273ffffffffffffffffffffffffffffffffffffffff161415610af2576040517f08c379a0000000000000000000000000000000000000000000000000000000008152600401610ae9906150a0565b60405180910390fd5b8060056000610aff61141b565b73ffffffffffffffffffffffffffffffffffffffff1673ffffffffffffffffffffffffffffffffffffffff16815260200190815260200160002060008473ffffffffffffffffffffffffffffffffffffffff1673ffffffffffffffffffffffffffffffffffffffff16815260200190815260200160002060006101000a81548160ff0219169083151502179055508173ffffffffffffffffffffffffffffffffffffffff16610bac61141b565b73ffffffffffffffffffffffffffffffffffffffff167f17307eab39ab6107e8899845ad3d59bd9653f200f220920489ca2b5937696c3183604051610bf19190614fc5565b60405180910390a35050565b60606000610c31610c0d84611824565b604051602001610c1d9190614e8a565b6040516020818303038152906040526119d1565b9050600a8054905081610c44919061557a565b9050600a8181548110610c80577f4e487b7100000000000000000000000000000000000000000000000000000000600052603260045260246000fd5b906000526020600020018054610c95906154ff565b80601f0160208091040260200160405190810160405280929190818152602001828054610cc1906154ff565b8015610d0e5780601f10610ce357610100808354040283529160200191610d0e565b820191906000526020600020905b815481529060010190602001808311610cf157829003601f168201915b5050505050915050919050565b610d2c610d2661141b565b836114ea565b610d6b576040517f08c379a0000000000000000000000000000000000000000000000000000000008152600401610d6290615240565b60405180910390fd5b610d7784848484611a04565b50505050565b60606000610db1610d8d84611824565b604051602001610d9d9190614e68565b6040516020818303038152906040526119d1565b9050600b8054905081610dc4919061557a565b9050600b8181548110610e00577f4e487b7100000000000000000000000000000000000000000000000000000000600052603260045260246000fd5b906000526020600020018054610e15906154ff565b80601f0160208091040260200160405190810160405280929190818152602001828054610e41906154ff565b8015610e8e5780601f10610e6357610100808354040283529160200191610e8e565b820191906000526020600020905b815481529060010190602001808311610e7157829003601f168201915b5050505050915050919050565b6060610ea6826113af565b610ee5576040517f08c379a0000000000000000000000000000000000000000000000000000000008152600401610edc906151a0565b60405180910390fd5b6000600660008481526020019081526020016000208054610f05906154ff565b80601f0160208091040260200160405190810160405280929190818152602001828054610f31906154ff565b8015610f7e5780601f10610f5357610100808354040283529160200191610f7e565b820191906000526020600020905b815481529060010190602001808311610f6157829003601f168201915b505050505090506000610f8f611a60565b9050600081511415610fa5578192505050610fe8565b600082511115610fda578082604051602001610fc2929190614de4565b60405160208183030381529060405292505050610fe8565b610fe384611a77565b925050505b919050565b6000610ff960076114dc565b9050603281111561103f576040517f08c379a0000000000000000000000000000000000000000000000000000000008152600401611036906150e0565b60405180910390fd5b600061104a82610742565b9050600061105783610bfd565b9050600061106484610d7d565b9050600083838360405160200161107d93929190614e08565b604051602081830303815290604052905060006008826040516020016110a4929190614e39565b604051602081830303815290604052905060006110e9836110c484611b1e565b6040516020016110d5929190614eac565b604051602081830303815290604052611b1e565b90506000816040516020016110fe9190614f13565b604051602081830303815290604052905061114d6040518060400160405280601581526020017f0a2d2d2d2d2d2d2d2d2d2d2d2d2d2d2d2d2d2d2d2d00000000000000000000008152506112ac565b611156816112ac565b6111946040518060400160405280601581526020017f2d2d2d2d2d2d2d2d2d2d2d2d2d2d2d2d2d2d2d2d0a00000000000000000000008152506112ac565b61119e3389611cdc565b6111a88882611cfa565b6111b26007611d6e565b6111d56040518060600160405280602581526020016156d5602591398933611d84565b7febb98688741ffa4c7589bf325de30cf7becb63de567842e1ccdb6cb949fdc82c3389604051611206929190614f9c565b60405180910390a15050505050505050565b6000600560008473ffffffffffffffffffffffffffffffffffffffff1673ffffffffffffffffffffffffffffffffffffffff16815260200190815260200160002060008373ffffffffffffffffffffffffffffffffffffffff1673ffffffffffffffffffffffffffffffffffffffff16815260200190815260200160002060009054906101000a900460ff16905092915050565b611342816040516024016112c09190614fe0565b6040516020818303038152906040527f41304fac000000000000000000000000000000000000000000000000000000007bffffffffffffffffffffffffffffffffffffffffffffffffffffffff19166020820180517bffffffffffffffffffffffffffffffffffffffffffffffffffffffff8381831617835250505050611e23565b50565b60007f01ffc9a7000000000000000000000000000000000000000000000000000000007bffffffffffffffffffffffffffffffffffffffffffffffffffffffff1916827bffffffffffffffffffffffffffffffffffffffffffffffffffffffff1916149050919050565b60008073ffffffffffffffffffffffffffffffffffffffff166002600084815260200190815260200160002060009054906101000a900473ffffffffffffffffffffffffffffffffffffffff1673ffffffffffffffffffffffffffffffffffffffff1614159050919050565b600033905090565b816004600083815260200190815260200160002060006101000a81548173ffffffffffffffffffffffffffffffffffffffff021916908373ffffffffffffffffffffffffffffffffffffffff160217905550808273ffffffffffffffffffffffffffffffffffffffff1661149683610880565b73ffffffffffffffffffffffffffffffffffffffff167f8c5be1e5ebec7d5bd14f71427d1e84f3dd0314c0f7b2291e5b200ac8c7c3b92560405160405180910390a45050565b600081600001549050919050565b60006114f5826113af565b611534576040517f08c379a000000000000000000000000000000000000000000000000000000000815260040161152b906150c0565b60405180910390fd5b600061153f83610880565b90508073ffffffffffffffffffffffffffffffffffffffff168473ffffffffffffffffffffffffffffffffffffffff1614806115ae57508373ffffffffffffffffffffffffffffffffffffffff166115968461052f565b73ffffffffffffffffffffffffffffffffffffffff16145b806115bf57506115be8185611218565b5b91505092915050565b8273ffffffffffffffffffffffffffffffffffffffff166115e882610880565b73ffffffffffffffffffffffffffffffffffffffff161461163e576040517f08c379a0000000000000000000000000000000000000000000000000000000008152600401611635906151e0565b60405180910390fd5b600073ffffffffffffffffffffffffffffffffffffffff168273ffffffffffffffffffffffffffffffffffffffff1614156116ae576040517f08c379a00000000000000000000000000000000000000000000000000000000081526004016116a590615080565b60405180910390fd5b6116b9838383611e4c565b6116c4600082611423565b6001600360008573ffffffffffffffffffffffffffffffffffffffff1673ffffffffffffffffffffffffffffffffffffffff16815260200190815260200160002060008282546117149190615415565b925050819055506001600360008473ffffffffffffffffffffffffffffffffffffffff1673ffffffffffffffffffffffffffffffffffffffff168152602001908152602001600020600082825461176b9190615334565b92505081905550816002600083815260200190815260200160002060006101000a81548173ffffffffffffffffffffffffffffffffffffffff021916908373ffffffffffffffffffffffffffffffffffffffff160217905550808273ffffffffffffffffffffffffffffffffffffffff168473ffffffffffffffffffffffffffffffffffffffff167fddf252ad1be2c89b69c2b068fc378daa952ba7f163c4a11628f55a4df523b3ef60405160405180910390a4505050565b6060600082141561186c576040518060400160405280600181526020017f300000000000000000000000000000000000000000000000000000000000000081525090506119cc565b600082905060005b6000821461189e57808061188790615531565b915050600a82611897919061538a565b9150611874565b60008167ffffffffffffffff8111156118e0577f4e487b7100000000000000000000000000000000000000000000000000000000600052604160045260246000fd5b6040519080825280601f01601f1916602001820160405280156119125781602001600182028036833780820191505090505b5090505b600085146119c55760018261192b9190615415565b9150600a8561193a919061557a565b60306119469190615334565b60f81b818381518110611982577f4e487b7100000000000000000000000000000000000000000000000000000000600052603260045260246000fd5b60200101907effffffffffffffffffffffffffffffffffffffffffffffffffffffffffffff1916908160001a905350600a856119be919061538a565b9450611916565b8093505050505b919050565b6000816040516020016119e49190614dcd565b6040516020818303038152906040528051906020012060001c9050919050565b611a0f8484846115c8565b611a1b84848484611e51565b611a5a576040517f08c379a0000000000000000000000000000000000000000000000000000000008152600401611a5190615040565b60405180910390fd5b50505050565b606060405180602001604052806000815250905090565b6060611a82826113af565b611ac1576040517f08c379a0000000000000000000000000000000000000000000000000000000008152600401611ab890615200565b60405180910390fd5b6000611acb611a60565b90506000815111611aeb5760405180602001604052806000815250611b16565b80611af584611824565b604051602001611b06929190614de4565b6040516020818303038152906040525b915050919050565b60606000825190506000811415611b475760405180602001604052806000815250915050611cd7565b60006003600283611b589190615334565b611b62919061538a565b6004611b6e91906153bb565b90506000602082611b7f9190615334565b67ffffffffffffffff811115611bbe577f4e487b7100000000000000000000000000000000000000000000000000000000600052604160045260246000fd5b6040519080825280601f01601f191660200182016040528015611bf05781602001600182028036833780820191505090505b50905060006040518060600160405280604081526020016156fa604091399050600181016020830160005b86811015611c945760038101905062ffffff818a015116603f8160121c168401518060081b905060ff603f83600c1c1686015116810190508060081b905060ff603f8360061c1686015116810190508060081b905060ff603f831686015116810190508060e01b90508084526004840193505050611c1b565b506003860660018114611cae5760028114611cbe57611cc9565b613d3d60f01b6002830352611cc9565b603d60f81b60018303525b508484525050819450505050505b919050565b611cf6828260405180602001604052806000815250611fe8565b5050565b611d03826113af565b611d42576040517f08c379a0000000000000000000000000000000000000000000000000000000008152600401611d3990615160565b60405180910390fd5b80600660008481526020019081526020016000209080519060200190611d69929190612224565b505050565b6001816000016000828254019250508190555050565b611e1e838383604051602401611d9c93929190615002565b6040516020818303038152906040527fe3849f79000000000000000000000000000000000000000000000000000000007bffffffffffffffffffffffffffffffffffffffffffffffffffffffff19166020820180517bffffffffffffffffffffffffffffffffffffffffffffffffffffffff8381831617835250505050611e23565b505050565b60008151905060006a636f6e736f6c652e6c6f679050602083016000808483855afa5050505050565b505050565b6000611e728473ffffffffffffffffffffffffffffffffffffffff16612043565b15611fdb578373ffffffffffffffffffffffffffffffffffffffff1663150b7a02611e9b61141b565b8786866040518563ffffffff1660e01b8152600401611ebd9493929190614f50565b602060405180830381600087803b158015611ed757600080fd5b505af1925050508015611f0857506040513d601f19601f82011682018060405250810190611f059190612568565b60015b611f8b573d8060008114611f38576040519150601f19603f3d011682016040523d82523d6000602084013e611f3d565b606091505b50600081511415611f83576040517f08c379a0000000000000000000000000000000000000000000000000000000008152600401611f7a90615040565b60405180910390fd5b805181602001fd5b63150b7a0260e01b7bffffffffffffffffffffffffffffffffffffffffffffffffffffffff1916817bffffffffffffffffffffffffffffffffffffffffffffffffffffffff191614915050611fe0565b600190505b949350505050565b611ff28383612056565b611fff6000848484611e51565b61203e576040517f08c379a000000000000000000000000000000000000000000000000000000000815260040161203590615040565b60405180910390fd5b505050565b600080823b905060008111915050919050565b600073ffffffffffffffffffffffffffffffffffffffff168273ffffffffffffffffffffffffffffffffffffffff1614156120c6576040517f08c379a00000000000000000000000000000000000000000000000000000000081526004016120bd90615180565b60405180910390fd5b6120cf816113af565b1561210f576040517f08c379a000000000000000000000000000000000000000000000000000000000815260040161210690615060565b60405180910390fd5b61211b60008383611e4c565b6001600360008473ffffffffffffffffffffffffffffffffffffffff1673ffffffffffffffffffffffffffffffffffffffff168152602001908152602001600020600082825461216b9190615334565b92505081905550816002600083815260200190815260200160002060006101000a81548173ffffffffffffffffffffffffffffffffffffffff021916908373ffffffffffffffffffffffffffffffffffffffff160217905550808273ffffffffffffffffffffffffffffffffffffffff16600073ffffffffffffffffffffffffffffffffffffffff167fddf252ad1be2c89b69c2b068fc378daa952ba7f163c4a11628f55a4df523b3ef60405160405180910390a45050565b828054612230906154ff565b90600052602060002090601f0160209004810192826122525760008555612299565b82601f1061226b57805160ff1916838001178555612299565b82800160010185558215612299579182015b8281111561229857825182559160200191906001019061227d565b5b5090506122a691906122aa565b5090565b5b808211156122c35760008160009055506001016122ab565b5090565b60006122da6122d5846152ac565b61527b565b9050828152602081018484840111156122f257600080fd5b6122fd8482856154bd565b509392505050565b60008135905061231481615678565b92915050565b6000813590506123298161568f565b92915050565b60008135905061233e816156a6565b92915050565b600081519050612353816156a6565b92915050565b600082601f83011261236a57600080fd5b813561237a8482602086016122c7565b91505092915050565b600081359050612392816156bd565b92915050565b6000602082840312156123aa57600080fd5b60006123b884828501612305565b91505092915050565b600080604083850312156123d457600080fd5b60006123e285828601612305565b92505060206123f385828601612305565b9150509250929050565b60008060006060848603121561241257600080fd5b600061242086828701612305565b935050602061243186828701612305565b925050604061244286828701612383565b9150509250925092565b6000806000806080858703121561246257600080fd5b600061247087828801612305565b945050602061248187828801612305565b935050604061249287828801612383565b925050606085013567ffffffffffffffff8111156124af57600080fd5b6124bb87828801612359565b91505092959194509250565b600080604083850312156124da57600080fd5b60006124e885828601612305565b92505060206124f98582860161231a565b9150509250929050565b6000806040838503121561251657600080fd5b600061252485828601612305565b925050602061253585828601612383565b9150509250929050565b60006020828403121561255157600080fd5b600061255f8482850161232f565b91505092915050565b60006020828403121561257a57600080fd5b600061258884828501612344565b91505092915050565b6000602082840312156125a357600080fd5b60006125b184828501612383565b91505092915050565b6125c381615449565b82525050565b6125d28161545b565b82525050565b60006125e3826152f1565b6125ed8185615307565b93506125fd8185602086016154cc565b61260681615667565b840191505092915050565b600061261c826152fc565b6126268185615318565b93506126368185602086016154cc565b61263f81615667565b840191505092915050565b6000612655826152fc565b61265f8185615329565b935061266f8185602086016154cc565b80840191505092915050565b60008154612688816154ff565b6126928186615329565b945060018216600081146126ad57600181146126be576126f1565b60ff198316865281860193506126f1565b6126c7856152dc565b60005b838110156126e9578154818901526001820191506020810190506126ca565b838801955050505b50505092915050565b6000612707603283615318565b91507f4552433732313a207472616e7366657220746f206e6f6e20455243373231526560008301527f63656976657220696d706c656d656e74657200000000000000000000000000006020830152604082019050919050565b600061276d601c83615318565b91507f4552433732313a20746f6b656e20616c7265616479206d696e746564000000006000830152602082019050919050565b60006127ad600a83615329565b91507f54484952445f574f5244000000000000000000000000000000000000000000006000830152600a82019050919050565b60006127ee6118a183615329565b91507f3c2f746578743e3c672069643d276c617965723127207472616e73666f726d3d60008301527f277472616e736c617465282d3231382e3437202d3436382e303929273e3c706160208301527f74682069643d2770617468323939362720643d276d3335372e3837203534312e60408301527f3963352e353739332d312e313733362031302e3735372d332e3837313820313660608301527f2e33322d352e313220392e383736362d322e3231362031392e39372d332e363660808301527f34342033302e30382d342e313620382e313033322d302e33393732362031362e60a08301527f3336382d302e36343632342032342e333220302e393620392e3232313620312e60c08301527f383632362031382e333520352e303838362032362e34323320392e393220382e60e08301527f3933353220352e333437372031362e3434392031322e3932312032332e3439376101008301527f2032302e35383720342e3231363220342e3538353920382e3032353820392e366101208301527f3138312031312e3039332031352e303420342e3734303720382e3337393220396101408301527f2e343038312031372e3138382031312e3039332032362e36363720312e3931326101608301527f342031302e37353720302e38353731322032322e3035342d312e3338363620336101808301527f322e3734372d322e333734342031312e3331352d362e3130342032322e3734376101a08301527f2d31322e3538372033322e33322d362e35363920392e373030352d31352e35326101c08301527f312031382e3135392d32352e3637362032342d372e3337393820342e323434396101e08301527f2d31362e32313720352e323230392d32342e34353720372e33362d31312e30396102008301527f3820322e383830382d32322e3320352e343230322d33332e3620372e33362d316102208301527f322e37313420322e313832342d32352e35303220342e363134352d33382e34206102408301527f342e382d31352e36343320302e32323439352d33312e33312d312e373738392d6102608301527f34362e37322d342e34382d31312e3832342d322e303732352d32342e3137362d6102808301527f332e353235372d33342e38382d382e39362d31362e3632332d382e343339362d6102a08301527f33322e3134352d32302e3530392d34332e322d33352e35322d372e333736342d6102c08301527f31302e3031362d31322e3236342d32322e3235342d31342e30382d33342e35366102e08301527f2d322e313537392d31342e3632372d302e39353031332d33302e32383620342e6103008301527f31362d34342e313620342e303938352d31312e3132372031312e3832362d32306103208301527f2e3936352032302e3433342d32392e313220382e3034352d372e3632313820316103408301527f372e37392d31332e3831342032382e3230362d31372e362031312e35342d342e6103608301527f3139352032342e3230322d342e393332382033362e34382d352e313220362e386103808301527f3636362d302e31303437312031332e38303320302e36333630322032302e34386103a08301527f20322e323420332e3231363920302e373732373320362e3038313820322e36376103c08301527f333420392e323820332e353220332e3333393720302e383834303420362e37386103e08301527f363120312e353233342031302e323420312e3620302e393635363720302e30326104008301527f313420312e393334382d302e313231313620322e38382d302e33327a272074726104208301527f616e73666f726d3d276d6174726978282e3820302030202e382037322e3633396104408301527f203131392927207374726f6b653d272336623135313227207374726f6b652d776104608301527f696474683d27322e3536272066696c6c3d2723656334633239272f3e3c7061746104808301527f682069643d2770617468323939382720643d276d3331362e3434203534372e316104a08301527f347331312e3832332d302e32353138312031372e36363420302e35313263342e6104c08301527f3433333120302e353739373320382e3736313220312e383239372031332e30356104e08301527f3620332e30373220322e3531343620302e373237333720342e3830373720322e6105008301527f3437363620372e34323420322e353620332e3533383220302e313132373220366105208301527f2e383037322d312e393531312031302e32342d322e38313620342e303734382d6105408301527f312e3032363720382e3136392d312e393834322031322e3238382d322e3831366105608301527f20332e333936362d302e36383539322031302e32342d312e3739322031302e326105808301527f342d312e373932732d332e3137363620362e353833372d352e33373620392e346105a08301527f3732632d322e3139333420322e383830342d342e3631363220352e373531322d6105c08301527f372e363820372e36382d342e3133333920322e363032352d382e3937363920346105e08301527f2e323537342d31332e38323420342e3836342d352e3639353820302e373132386106008301527f342d31312e3539322d302e313038352d31372e3135322d312e3533362d352e316106208301527f3434342d312e333230382d31302e3131382d332e353337392d31342e3539322d6106408301527f362e342d332e333630392d322e31352d362e333230332d342e393434342d382e6106608301527f39362d372e3933362d312e323939382d312e343733312d332e3332382d342e386106808301527f36342d332e3332382d342e3836347a27207374726f6b653d27233562313131386106a08301527f27207374726f6b652d77696474683d27322e303438272066696c6c3d276e6f6e6106c08301527f65272f3e203c706174682069643d2770617468333030302720643d276d3334346106e08301527f2e3039203534392e3935632d312e3032342d322e3831362d322e3836322d31306107008301527f2e3833312d332e3332382d31362e3338342d302e36343937322d372e373432336107208301527f2d312e373438362d31352e39343520302e3736382d32332e32393620312e39376107408301527f39332d352e3738313320362e343637342d31302e3439312031302e3735322d316107608301527f342e38343820342e313838322d342e3235392031342e3333362d31302e3735326107808301527f2031342e3333362d31302e37353273322e3036363720362e3732363620332e386107a08301527f3420392e37323863312e36333420322e3736353620362e31343420372e3432346107c08301527f20362e31343420372e343234732d372e3333303520352e363232322d31302e346107e08301527f393620382e3936632d332e3437363420332e363635372d372e3232343920372e6108008301527f333838392d392e3231362031322e3033322d322e3538373720362e303334322d6108208301527f332e373038332031322e3932312d332e3037322031392e34353620302e3336316108408301527f303320332e3730373920332e38342031302e34393620332e38342031302e34396108608301527f36732d332e3433353420302e32373333372d352e31322030632d322e39332d306108808301527f2e34373534372d382e3434382d322e3831362d382e3434382d322e3831367a276108a08301527f207374726f6b653d272336363239313627207374726f6b652d77696474683d276108c08301527f322e303438272066696c6c3d2723373332303136272f3e203c706174682069646108e08301527f3d27706174683330303227207374726f6b652d6c696e656a6f696e3d27726f756109008301527f6e642720643d276d3336372e3133203438342e393373352e3339323320322e366109208301527f37323220362e3934383620352e3038333463312e3939323820332e30383735206109408301527f322e323637342031302e37383920322e323637342031302e373839732d352e346109608301527f3935342d342e363033352d372e3136382d372e3638632d312e333434342d322e6109808301527f343732392d322e3034382d382e3139322d322e3034382d382e3139327a2720736109a08301527f74726f6b653d272336363239313627207374726f6b652d6c696e656361703d276109c08301527f726f756e6427207374726f6b652d77696474683d27322e303438272066696c6c6109e08301527f3d272363393562346527202f3e3c706174682069643d27706174683330303427610a008301527f20643d276d3331322e36203535332e3238732d31302e3336382031352e383632610a208301527f2d31342e3539322032342e3332632d332e3935303420372e393130372d372e35610a408301527f3738352031362e3036372d392e3938342032342e3537362d332e313036362031610a608301527f302e3938392d352e353339322032322e3337332d352e3633322033332e373932610a808301527f2d302e3037303220382e3632383520322e313238362031372e31343320332e38610aa08301527f342032352e3620302e373531323220332e3731323220322e3831362031312e30610ac08301527f303820322e3831362031312e30303827207374726f6b653d2723356231313138610ae08301527f27207374726f6b652d77696474683d27322e303438272066696c6c3d276e6f6e610b008301527f6527202f3e3c706174682069643d2770617468333030362720643d276d333338610b208301527f2e3537203536352e3339732d322e3934303720392e373737382d332e39343937610b408301527f2031342e373735632d332e3038362031352e3238342d352e333935312033302e610b608301527f3737362d362e342034362e3333362d302e36363534392031302e3330342d302e610b808301527f31373634382032302e36353920302e3235362033302e39373620302e36333436610ba08301527f322031352e31333920332e3538342032352e38353620332e3538342032352e38610bc08301527f353627207374726f6b653d272335623131313827207374726f6b652d77696474610be08301527f683d27322e303438272066696c6c3d276e6f6e6527202f3e3c70617468206964610c008301527f3d2770617468333030382720643d276d3336322e3139203536372e3733732d31610c208301527f2e333133352032322e3237352d312e343632392033332e343236632d302e3230610c408301527f3233332031352e31303520302e31343037312033302e32313920302e37363820610c608301527f34352e33313220302e35333632352031322e39303220322e35362033382e3635610c808301527f3620322e35362033382e36353627207374726f6b653d27233562313131382720610ca08301527f7374726f6b652d77696474683d27322e303438272066696c6c3d276e6f6e6527610cc08301527f202f3e3c706174682069643d2770617468333031302720643d276d3339332e37610ce08301527f35203535312e343973352e353933392031362e39333920372e36382032352e36610d008301527f63332e383739392031362e31303920372e353830312033322e33383420382e39610d208301527f362034382e38393620302e39383037352031312e37333620302e353039313520610d408301527f32332e3539352d302e3531322033352e3332382d302e363036393720362e3937610d608301527f34312d332e3332382032302e3733362d332e3332382032302e37333627207374610d808301527f726f6b653d272335623131313827207374726f6b652d77696474683d27322e30610da08301527f3438272066696c6c3d276e6f6e6527202f3e3c706174682069643d2770617468610dc08301527f333031322720643d276d3432302e3839203535322e35317331372e3631312032610de08301527f372e3130322032322e3738342034322e323463332e353531382031302e333934610e008301527f20352e353231332032312e35323820352e3337362033322e3531322d302e3132610e208301527f353320392e343731362d322e393939372031382e3733352d352e333736203237610e408301527f2e3930342d312e3337343220352e333032382d352e31322031352e3631362d35610e608301527f2e31322031352e36313627207374726f6b653d27233562313131382720737472610e808301527f6f6b652d77696474683d27322e303438272066696c6c3d276e6f6e65272f3e20610ea08301527f3c706174682069643d2770617468333031342720643d276d3239352e34312036610ec08301527f33352e3331732d302e36343637362d31352e35323420302e35343835372d3233610ee08301527f2e313563312e323132362d372e3733353820322e393431342d31352e36333520610f008301527f362e3635362d32322e35323820322e333834332d342e3432343420352e323037610f208301527f342d392e3332333420392e3732382d31312e353220342e333737362d322e3132610f408301527f373120392e393938342d322e313230332031342e3539322d302e35313220352e610f608301527f3139373820312e3831393820392e3434313520362e3230322031322e35343420610f808301527f31302e37353220332e35313220352e3135303620352e313734362031312e3530610fa08301527f3620362e3134342031372e36363420312e3138313320372e353034322d302e35610fc08301527f31322032322e3738342d302e3531322032322e373834732d31332e3736372d39610fe08301527f2e323135342d32312e36352d392e35383137632d332e373839322d302e3137366110008301527f30382d372e3431343720312e383836372d31302e37383920332e363230362d366110208301527f2e3331333520332e323434362d31372e3236322031322e3437312d31372e32366110408301527f322031322e3437317a27207374726f6b653d272330303027207374726f6b652d6110608301527f77696474683d272e373638272066696c6c3d2723656263343865272f3e3c70616110808301527f74682069643d2770617468333031362720643d276d3330362e3731203632372e6110a08301527f3038732d302e32383939342d362e373834382d302e303733312d31302e3136376110c08301527f63302e33343730372d352e3431343420302e343735322d31302e39383220322e6110e08301527f313934332d31362e31323820322e313036322d362e3330343820352e313330366111008301527f2d31322e36303720392e3732382d31372e34303820322e313939352d322e32396111208301527f363920342e393431352d352e3134333420382e313138392d352e3031303320346111408301527f2e3939383720302e323039343920392e3038323320342e393039332031322e306111608301527f363920382e3932333420332e3734323420352e3033303520352e3335323620316111808301527f312e35313320362e333633342031372e37303120312e3239333420372e3931386111a08301527f322d302e3531322032342e3036342d302e3531322032342e303634732d31302e6111c08301527f3535392d372e373239342d31362e3738362d382e363433632d342e313530392d6111e08301527f302e36303930382d382e3339363120302e39363838372d31322e33373320322e6112008301527f3330342d332e3038333820312e303335322d382e3732383420342e333634322d6112208301527f382e3732383420342e333634327a27207374726f6b653d2723613731643365276112408301527f207374726f6b652d77696474683d272e373638272066696c6c3d2723353531616112608301527f3164272f3e3c706174682069643d2770617468333031382720643d276d3337376112808301527f2e3831203633312e3336732d312e303738312d31392e36393520312e303937316112a08301527f2d32392e31383463312e353139382d362e3632393620342e303331392d31332e6112c08301527f33303720382e3139322d31382e36383820332e343536322d342e3437303520376112e08301527f2e393033362d382e3835392031332e3331322d31302e34393620342e303936386113008301527f2d312e323420382e383538382d302e36343537352031322e3820312e303234206113208301527f352e3233333220322e3231373120392e3833363420362e343134342031322e386113408301527f2031312e32363420332e3632363220352e3933333720342e333530392031332e6113608301527f33313320352e31322032302e32323420302e3731373520362e343437382d302e6113808301527f3531322031392e3435362d302e3531322031392e343536732d31312e3537352d6113a08301527f362e3736332d31382e30332d382e30343537632d352e3233392d312e303431316113c08301527f2d31302e3937332d312e3331342d31362e30313820302e34333838352d372e336113e08301527f37323220322e353631312d31382e3736312031342e3030372d31382e373631206114008301527f31342e3030377a27207374726f6b653d272330303027207374726f6b652d77696114208301527f6474683d272e373638272066696c6c3d2723656263343865272f3e3c706174686114408301527f2069643d2770617468333032302720643d276d3338382e3933203632312e37346114608301527f73302e303730312d31322e323920312e323433342d31382e32383663312e31386114808301527f38342d362e3037323120322e373334392d31322e32363120352e383134392d316114a08301527f372e36323720322e383431372d342e3935313220352e373535312d31312e36346114c08301527f312031312e3333372d31322e38333720342e383534362d312e3034303220392e6114e08301527f39353320322e3734312031332e35363820362e31343420352e3035383620342e6115008301527f3736313820382e303137362031312e36393920392e3732382031382e343332206115208301527f312e3736343920362e3934373820302e36323439312031342e33343520302e326115408301527f35362032312e3530342d302e313134393320322e323330342d302e37363820366115608301527f2e3635362d302e37363820362e363536732d392e30352d362e313234362d31346115808301527f2e3139332d372e37323532632d342e373530382d312e343738352d392e3932376115a08301527f342d322e333234322d31342e3834352d312e353633392d342e3336343520302e6115c08301527f36373438362d31322e31343220352e333032392d31322e31343220352e3330326115e08301527f397a27207374726f6b653d272361373164336527207374726f6b652d776964746116008301527f683d272e373638272066696c6c3d2723353531613164272f3e3c7061746820696116208301527f643d2770617468333032322720643d276d3335332e3536203633302e383520316116408301527f392e3435362d322e33303420302e32353620392e3231362d31372e36363420326116608301527f2e3330347a27207374726f6b653d272361373164336527207374726f6b652d776116808301527f696474683d272e373638272066696c6c3d2723353531613164272f3e3c7061746116a08301527f682069643d2770617468333032342720643d276d3430392e3933203637362e356116c08301527f33732d31392e332d332e313339372d32392e3030332d342e33313939632d352e6116e08301527f393434332d302e37323330332d31312e3839382d312e383230312d31372e38386117008301527f352d312e363930322d362e3137393920302e31333431362d31322e33303220316117208301527f2e333536392d31382e33363920322e353434322d362e3634323420312e3330306117408301527f312d31392e363820352e303032372d31392e363820352e3030323773362e38366117608301527f39352d31332e3330322031322e3032382d31382e35373463352e3934332d362e6117808301527f303734342031322e3937392d31312e37392032312e3039312d31342e333232206117a08301527f342e3531322d312e3430383420392e353431352d312e3033332031342e31382d6117c08301527f302e313232313920352e3338393920312e303538352031302e36303920332e336117e08301527f3438332031352e32303120362e33363320342e353220322e3936373620382e306118008301527f38323820372e323137342031312e3639362031312e323420332e3930393620346118208301527f2e333531352031302e37342031332e3837392031302e37342031332e3837397a6118408301527f27207374726f6b653d272361373164336527207374726f6b652d77696474683d6118608301527f272e373638272066696c6c3d2723353531613164272f3e3c2f673e3c2f7376676118808301527f3e000000000000000000000000000000000000000000000000000000000000006118a08301526118a182019050919050565b600061462b602483615318565b91507f4552433732313a207472616e7366657220746f20746865207a65726f2061646460008301527f72657373000000000000000000000000000000000000000000000000000000006020830152604082019050919050565b6000614691601983615318565b91507f4552433732313a20617070726f766520746f2063616c6c6572000000000000006000830152602082019050919050565b60006146d1600b83615329565b91507f5345434f4e445f574f52440000000000000000000000000000000000000000006000830152600b82019050919050565b6000614711602c83615318565b91507f4552433732313a206f70657261746f7220717565727920666f72206e6f6e657860008301527f697374656e7420746f6b656e00000000000000000000000000000000000000006020830152604082019050919050565b6000614777602f83615318565b91507f4e6f206d6f7265204e465473206c65667420746f206d696e7420696e2074686960008301527f7320636f6c6c656374696f6e203a2800000000000000000000000000000000006020830152604082019050919050565b60006147dd603883615318565b91507f4552433732313a20617070726f76652063616c6c6572206973206e6f74206f7760008301527f6e6572206e6f7220617070726f76656420666f7220616c6c00000000000000006020830152604082019050919050565b6000614843602a83615318565b91507f4552433732313a2062616c616e636520717565727920666f7220746865207a6560008301527f726f2061646472657373000000000000000000000000000000000000000000006020830152604082019050919050565b60006148a9602983615318565b91507f4552433732313a206f776e657220717565727920666f72206e6f6e657869737460008301527f656e7420746f6b656e00000000000000000000000000000000000000000000006020830152604082019050919050565b600061490f602e83615318565b91507f45524337323155524953746f726167653a2055524920736574206f66206e6f6e60008301527f6578697374656e7420746f6b656e0000000000000000000000000000000000006020830152604082019050919050565b6000614975600283615329565b91507f227d0000000000000000000000000000000000000000000000000000000000006000830152600282019050919050565b60006149b5602083615318565b91507f4552433732313a206d696e7420746f20746865207a65726f20616464726573736000830152602082019050919050565b60006149f5603183615318565b91507f45524337323155524953746f726167653a2055524920717565727920666f722060008301527f6e6f6e6578697374656e7420746f6b656e0000000000000000000000000000006020830152604082019050919050565b6000614a5b602c83615318565b91507f4552433732313a20617070726f76656420717565727920666f72206e6f6e657860008301527f697374656e7420746f6b656e00000000000000000000000000000000000000006020830152604082019050919050565b6000614ac1602983615318565b91507f4552433732313a207472616e73666572206f6620746f6b656e2074686174206960008301527f73206e6f74206f776e00000000000000000000000000000000000000000000006020830152604082019050919050565b6000614b27602f83615318565b91507f4552433732314d657461646174613a2055524920717565727920666f72206e6f60008301527f6e6578697374656e7420746f6b656e00000000000000000000000000000000006020830152604082019050919050565b6000614b8d600a83615329565b91507f7b226e616d65223a2022000000000000000000000000000000000000000000006000830152600a82019050919050565b6000614bcd602183615318565b91507f4552433732313a20617070726f76616c20746f2063757272656e74206f776e6560008301527f72000000000000000000000000000000000000000000000000000000000000006020830152604082019050919050565b6000614c33600a83615329565b91507f46495253545f574f5244000000000000000000000000000000000000000000006000830152600a82019050919050565b6000614c73601d83615329565b91507f646174613a6170706c69636174696f6e2f6a736f6e3b6261736536342c0000006000830152601d82019050919050565b6000614cb3603183615318565b91507f4552433732313a207472616e736665722063616c6c6572206973206e6f74206f60008301527f776e6572206e6f7220617070726f7665640000000000000000000000000000006020830152604082019050919050565b6000614d19606683615329565b91507f222c20226465736372697074696f6e223a202254686520686967686c7920726560008301527f6761726465642070756d706b696e20706174636820636f6c6c656374696f6e2260208301527f2c2022696d616765223a2022646174613a696d6167652f7376672b786d6c3b6260408301527f61736536342c00000000000000000000000000000000000000000000000000006060830152606682019050919050565b614dc7816154b3565b82525050565b6000614dd9828461264a565b915081905092915050565b6000614df0828561264a565b9150614dfc828461264a565b91508190509392505050565b6000614e14828661264a565b9150614e20828561264a565b9150614e2c828461264a565b9150819050949350505050565b6000614e45828561267b565b9150614e51828461264a565b9150614e5c826127e0565b91508190509392505050565b6000614e73826127a0565b9150614e7f828461264a565b915081905092915050565b6000614e95826146c4565b9150614ea1828461264a565b915081905092915050565b6000614eb782614b80565b9150614ec3828561264a565b9150614ece82614d0c565b9150614eda828461264a565b9150614ee582614968565b91508190509392505050565b6000614efc82614c26565b9150614f08828461264a565b915081905092915050565b6000614f1e82614c66565b9150614f2a828461264a565b915081905092915050565b6000602082019050614f4a60008301846125ba565b92915050565b6000608082019050614f6560008301876125ba565b614f7260208301866125ba565b614f7f6040830185614dbe565b8181036060830152614f9181846125d8565b905095945050505050565b6000604082019050614fb160008301856125ba565b614fbe6020830184614dbe565b9392505050565b6000602082019050614fda60008301846125c9565b92915050565b60006020820190508181036000830152614ffa8184612611565b905092915050565b6000606082019050818103600083015261501c8186612611565b905061502b6020830185614dbe565b61503860408301846125ba565b949350505050565b60006020820190508181036000830152615059816126fa565b9050919050565b6000602082019050818103600083015261507981612760565b9050919050565b600060208201905081810360008301526150998161461e565b9050919050565b600060208201905081810360008301526150b981614684565b9050919050565b600060208201905081810360008301526150d981614704565b9050919050565b600060208201905081810360008301526150f98161476a565b9050919050565b60006020820190508181036000830152615119816147d0565b9050919050565b6000602082019050818103600083015261513981614836565b9050919050565b600060208201905081810360008301526151598161489c565b9050919050565b6000602082019050818103600083015261517981614902565b9050919050565b60006020820190508181036000830152615199816149a8565b9050919050565b600060208201905081810360008301526151b9816149e8565b9050919050565b600060208201905081810360008301526151d981614a4e565b9050919050565b600060208201905081810360008301526151f981614ab4565b9050919050565b6000602082019050818103600083015261521981614b1a565b9050919050565b6000602082019050818103600083015261523981614bc0565b9050919050565b6000602082019050818103600083015261525981614ca6565b9050919050565b60006020820190506152756000830184614dbe565b92915050565b6000604051905081810181811067ffffffffffffffff821117156152a2576152a1615638565b5b8060405250919050565b600067ffffffffffffffff8211156152c7576152c6615638565b5b601f19601f8301169050602081019050919050565b60008190508160005260206000209050919050565b600081519050919050565b600081519050919050565b600082825260208201905092915050565b600082825260208201905092915050565b600081905092915050565b600061533f826154b3565b915061534a836154b3565b9250827fffffffffffffffffffffffffffffffffffffffffffffffffffffffffffffffff0382111561537f5761537e6155ab565b5b828201905092915050565b6000615395826154b3565b91506153a0836154b3565b9250826153b0576153af6155da565b5b828204905092915050565b60006153c6826154b3565b91506153d1836154b3565b9250817fffffffffffffffffffffffffffffffffffffffffffffffffffffffffffffffff048311821515161561540a576154096155ab565b5b828202905092915050565b6000615420826154b3565b915061542b836154b3565b92508282101561543e5761543d6155ab565b5b828203905092915050565b600061545482615493565b9050919050565b60008115159050919050565b60007fffffffff0000000000000000000000000000000000000000000000000000000082169050919050565b600073ffffffffffffffffffffffffffffffffffffffff82169050919050565b6000819050919050565b82818337600083830152505050565b60005b838110156154ea5780820151818401526020810190506154cf565b838111156154f9576000848401525b50505050565b6000600282049050600182168061551757607f821691505b6020821081141561552b5761552a615609565b5b50919050565b600061553c826154b3565b91507fffffffffffffffffffffffffffffffffffffffffffffffffffffffffffffffff82141561556f5761556e6155ab565b5b600182019050919050565b6000615585826154b3565b9150615590836154b3565b9250826155a05761559f6155da565b5b828206905092915050565b7f4e487b7100000000000000000000000000000000000000000000000000000000600052601160045260246000fd5b7f4e487b7100000000000000000000000000000000000000000000000000000000600052601260045260246000fd5b7f4e487b7100000000000000000000000000000000000000000000000000000000600052602260045260246000fd5b7f4e487b7100000000000000000000000000000000000000000000000000000000600052604160045260246000fd5b6000601f19601f8301169050919050565b61568181615449565b811461568c57600080fd5b50565b6156988161545b565b81146156a357600080fd5b50565b6156af81615467565b81146156ba57600080fd5b50565b6156c6816154b3565b81146156d157600080fd5b5056fe416e204e465420772f20494420257320686173206265656e206d696e74656420746f2025734142434445464748494a4b4c4d4e4f505152535455565758595a6162636465666768696a6b6c6d6e6f707172737475767778797a303132333435363738392b2fa264697066735822122041faa6a4eca50922c82c92c7f66755a9d4f588f63ca55f1c02a7d3175e2f2e0564736f6c634300080000333c73766720786d6c6e733d27687474703a2f2f7777772e77332e6f72672f323030302f73766727207072657365727665417370656374526174696f3d27784d696e594d696e206d656574272076696577426f783d273020302033353020333530273e3c7374796c653e2e62617365207b2066696c6c3a20626c61636b3b20666f6e742d66616d696c793a2073657269663b20666f6e742d73697a653a20323470783b207d3c2f7374796c653e3c746578742069643d2762617365272066696c6c3d27626c61636b2720783d273730252720793d273830252720646f6d696e616e742d626173656c696e653d276d6964646c652720746578742d616e63686f723d276d6964646c65273e412048616c6c6f7765656e207468656d6564204e465420636f6e74726163743f212053706f6f6b7921",
  "linkReferences": {},
  "deployedLinkReferences": {}
}